:020000040000FA
:100000000C94C8010C94F9010C94F9010C94F901B9
:100010000C94F9010C94F9010C94F9010C94F90178
:100020000C94F9010C94F9010C94F9010C94F90168
:100030000C94F9010C94F9010C94F9010C94F90158
:100040000C94F9010C94F9010C94F9010C94F90148
:100050000C94F9010C94F9010C94F9010C9496227A
:100060000C94F9010C9460220C9436220C94F90142
:100070000C94F9010C94F9010C94F9010C94F90118
:100080000C94F9010C94F9010C94F9010C94F90108
:100090000C94F9010C94F9010C94F9010C94F901F8
:1000A0000C94F9010C94F9010C94F9010C94F901E8
:1000B0000C94F9010C94F9010C94F9010C94F901D8
:1000C0000C94F9010C94F9010C94F9010C94F901C8
:1000D0000C94F9010C94F9010C94F9010C94F901B8
:1000E0000C94F9010C94EA070C94DD040C948D0631
:1000F0000C94241A0C94BD140C94551D0C94271EBA
:100100000C940E260C94D8180C94ED1F0C946B21B3
:100110000C9432050C940B0C0C949E020C94122639
:100120000C94C0020C94F7250C9426260C9492068D
:100130000C940D090C94F3250C94EB250C94E01F02
:100140000C9488060C94C9060C941C260C94662505
:100150000C94ED180C94201A0C94411F0C94CD1E95
:100160000C9491190C9420260C941D140C94391F96
:100170000C9418200C9412090C94401E0C94FA252F
:100180000C944E210C941E0E0C945B1E0C94A20534
:100190000C9404260C9460030C943A060C94A02151
:1001A0000C945D1A0C94DC1D0C9487050C94771F3D
:1001B0000C94D6190C94BB040C9426190C9462026E
:1001C0000C947B190C9432230C94101F0C949F20D8
:1001D0000C9400260C9454200C94F8020C947C216E
:1001E0000C9470190C942A260C9418260C94ED2269
:1001F0000C94B2020C9461250C94F11E0C943619E7
:100200000C94EF250C940B090C9430100C947C1D6D
:100210000C940A260C9416090C9452060C94C319DB
:100220000C94A1050C948F020C9430130C94E022D2
:1002300000000A0B02090C0D0E0807030401000060
:1002400000000000000000000000000000000000AE
:10025000000000000000000000000000121110006B
:10026000000000000000000000000000000000008E
:100270000000000000000D0A20646964206E6F74A5
:10028000207374617274000D0A505334206C6962DB
:100290002073746172746564000D0A4C3200094C5D
:1002A000656674486174593A20000D0A4C6566749D
:1002B000486174583A20000D0A5053000000220093
:1002C000250028002B002E00310034000201000020
:1002D000050108010B0100002100240027002A006D
:1002E0002D003000330001010000040107010A0164
:1002F00005050505070508080808020202020A0AA2
:1003000008080404040401010101010101010303BF
:10031000030303030303040707070C0C0C0C0C0C6A
:100320000C0C0202020206060606060606060B0B67
:100330000B0B0B0B0B0B01021020200808102040A8
:100340001020408002010201080402010102040899
:100350001020408080402010080402018004020127
:100360008040201008040201080402010102040870
:100370001020408001020408102040800001020388
:100380000C0D0E0F0A0B0809070605041011322385
:1003900011241FBECFEFD1E2DEBFCDBF00E00CBF06
:1003A00025E0A4EFB2E001C01D92AE3CB207E1F738
:1003B00012E0A0E0B2E0ECE0F1E500E00BBF02C02B
:1003C00007900D92A43FB107D9F711E0C8ECD1E036
:1003D00000E006C021970109802FFE010E945928E4
:1003E000C73CD10780E00807A9F70E946C240C9451
:1003F00084280C940000CF92DF92EF920F931F930A
:100400008E30910549F04097C9F180E01F910F911E
:10041000EF90DF90CF900895E8E00E2E000CFF0BD8
:10042000E458FC4FE49141E050E060E070E004C02B
:10043000440F551F661F771FEA95D2F7C0904904F5
:10044000D0904A04E0904B042E2D860130E0042326
:1004500015232623372381E0012B022B032B09F4DC
:1004600080E0409550956095C422D522E622C09246
:100470004904D0924A04E0924B04C8CFE0E1CDCFCA
:100480008CBD9DBD089590E0FC01EA5CFC4F249179
:1004900080519D4FFC018491882399F090E0880F52
:1004A000991FFC01EA52FD4FA591B491FC01E4545F
:1004B000FD4F859194918FB7F894EC91E22BEC93DA
:1004C0008FBF0895AF92BF92CF92DF92EF92FF92CB
:1004D0000F931F93CF93DF936C017B018B01040F6C
:1004E000151FEB015E01AE18BF08C017D10759F008
:1004F0006991D601ED91FC910190F081E02DC6014A
:100500001995892B79F7C501DF91CF911F910F9133
:10051000FF90EF90DF90CF90BF90AF900895FC01D7
:10052000538D448D252F30E0842F90E0821B930B58
:10053000541710F0CF96089501970895FC01918DFE
:10054000828D981761F0A28DAE0FBF2FB11D5D9601
:100550008C91928D9F5F9F73928F90E008958FEFA3
:100560009FEF0895FC01918D828D981731F0828D57
:10057000E80FF11D858D90E008958FEF9FEF0895AE
:10058000FC01918D228D892F90E0805C9F4F821B12
:1005900091098F739927089583E093E00E94C00228
:1005A00021E0892B09F420E0822F0895FC01A48D1D
:1005B000A80FB92FB11DA35ABF4F2C91848D90E085
:1005C00001968F739927848FA689B7892C93A08968
:1005D000B1898C91837080648C93938D848D9813F2
:1005E00006C00288F389E02D80818F7D8083089585
:1005F000EF92FF920F931F93CF93DF93EC0181E073
:10060000888F9B8D8C8D98131AC0E889F989808119
:1006100085FF15C09FB7F894EE89FF896083E8894C
:10062000F98980818370806480839FBF81E090E03E
:10063000DF91CF911F910F91FF90EF900895F62ECB
:100640000B8D10E00F5F1F4F0F731127E02E8C8D65
:100650008E110CC00FB607FCFACFE889F9898081AA
:1006600085FFF5CFCE010E94D602F1CFEB8DEC0FC6
:10067000FD2FF11DE35AFF4FF0829FB7F8940B8FC7
:10068000EA89FB8980818062CFCF0F931F93CF933C
:10069000DF938C01D0E0C0E0F801EC0FFD1F649106
:1006A000662341F083E093E00E94F802892B11F069
:1006B0002196F2CFCE01DF91CF911F910F91089536
:1006C000CF93DF93EC01888D8823B9F0AA89BB8989
:1006D000E889F9898C9185FD03C0808186FD0DC074
:1006E0000FB607FCF7CF8C9185FFF2CF808185FF95
:1006F000EDCFCE010E94D602E9CFDF91CF910895D0
:1007000080E090E0892B29F00E94CC0281110E94A8
:10071000000080E090E0892B49F080E090E0892B98
:1007200029F00E94000081110E94000080E090E00A
:10073000892B49F080E090E0892B29F00E9400008D
:1007400081110E94000080E090E0892B49F080E058
:1007500090E0892B29F00E94000081110C94000088
:1007600008953FB7F8948091F9029091FA02A09110
:10077000FB02B091FC0226B5A89B05C02F3F19F0E3
:100780000196A11DB11D3FBFBA2FA92F982F882711
:10079000BC01CD01620F711D811D911D42E0660FEC
:1007A000771F881F991F4A95D1F708958F929F92BE
:1007B000AF92BF92CF92DF92EF92FF924B015C011A
:1007C0000E94B1036B017C010E94B1036C197D0989
:1007D0008E099F09683E734081059105A8F321E0C9
:1007E000821A9108A108B10888EEC80E83E0D81ECD
:1007F000E11CF11C81149104A104B10429F7FF90BC
:10080000EF90DF90CF90BF90AF909F908F90089522
:100810002FB7F8946091F5027091F6028091F7027B
:100820009091F8022FBF08950F931F93CF93DF93FA
:10083000FC018B01EA0180819181892B31F1928148
:10084000992349F128813981232BF9F0D8012D9181
:100850003C91D9014C918381682F691B770B808172
:100860009181860F971FDC014C9382818150828396
:1008700088819981019799838883D8018D919C9172
:10088000119701968D939C93DACF80E0DF91CF9101
:100890001F910F9108958381828381E0F7CFDF92CA
:1008A000EF92FF920F931F93CF93DF93EC0185E0BC
:1008B000E62EF12CFE01869FE00DF11D112490859E
:1008C00096FF24C0192F177001E085E0D82E8FEF16
:1008D000800F8F3008F001E0602F70E0062FD69E69
:1008E000F001D79EF00D1124EC0FFD1F8085869539
:1008F000869586958770181701F16F5F7F4F60317D
:1009000068F38D81811302C011501D8385E08E9D97
:10091000F0018F9DF00D1124EC0FFD1F108681E07A
:10092000818712862296D783C683DF91CF911F914C
:100930000F91FF90EF90DF900895CE010E944F0439
:10094000C6CFFC0120812EBD9B012150310941F011
:1009500051810DB407FEFDCF4EB55EBD4193F5CF7D
:1009600061507109860F971F0DB407FEFDCF2EB59C
:10097000FC0120830895FC0121E0613499F49C017D
:10098000255B3F4F61E0AC014E5F5F4F1586668788
:1009900017865487438735962E173F07B9F7FC0112
:1009A000158208953585631729F02F5F359620311C
:1009B000C9F70895622F0C944F04CF93DF93FC0185
:1009C00067FD12C0283080F4442319F085818730F8
:1009D00059F0EF01A1E0B0E08D85882349F111962F
:1009E0002596A031B105C1F780E018C085E08A9F47
:1009F000E0018B9FD00D1124CE0FDF1F442389F01F
:100A000081E4888785818F5F858325E02A9FC001E7
:100A10002B9F900D1124E80FF91F8085DF91CF9156
:100A2000089581E08887F1CF2770687B622B0FC023
:100A30006623E1F26770660F660F660F4423A1F329
:100A4000606485818F5F85838770687F682B25E070
:100A50002A9FC0012B9F900D1124E80FF91F60877A
:100A6000862FDCCFFC0121E0611102C006960895BB
:100A70003585631739F02F5F35962031C9F790E03F
:100A800080E00895069635E0239F800D911D112486
:100A90000895FC018FE78283838384838583168294
:100AA00017821086DF01DE961D921D921C9212970E
:100AB0001186128684A1806884A380A5806880A79F
:100AC00085A5806885A781A9806881AB86A9806893
:100AD00086AB82AD806882AF88E0868386AF13964E
:100AE0008C91807F8C931B961C9217971C92119768
:100AF0001C9214961C9211971C9211971C9214969A
:100B00001C9211971C92E55BFF4F10820895DC0147
:100B10001D961C921D97FC01E65AFF4F10823196DC
:100B20001082FC0110861186128613862AE0228B21
:100B3000EE59FF4F1082ED91FC910088F189E02D74
:100B4000199408950895FA01DC01AF5ABF4F6C93D0
:100B500023812370233059F5228127FF27C017975F
:100B60002C91237024602C9341E050E09A01220FD5
:100B7000331F240F351F280F391FD901AB5BBF4F1F
:100B800042814F704C932A5B3F4F4481D9014C9373
:100B90002681FC01ED59FF4F3081321708F4208384
:100BA000FC01EE5AFF4F80818F5F808308952230D1
:100BB000E9F7228143E027FFD8CF42E0D6CFEF927A
:100BC000FF920F931F93CF93DF93EC01FC01EB5B3C
:100BD000FF4F1082319688E0808331968CE38083CA
:100BE0003196108231961082319684E0808331965E
:100BF0001082319610823196808331961082319620
:100C00001082319680838E01095A1F4F7E018FE535
:100C1000E80EF11CD8018D919D918D01009739F05E
:100C2000DC01ED91FC910480F581E02D19950E1504
:100C30001F0581F719AE1AAE1EAE1FAEFE01E859B0
:100C4000FF4F1082B49710823E9681E080833196E8
:100C50001082118212821382709610823296108254
:100C6000CC59DF4F1882DF91CF911F910F91FF90E8
:100C7000EF900895CF93DF93EC010E94DF05FE0112
:100C8000EE5BFF4F80819181CC5BDF4FDC01ED910A
:100C9000FC910480F581E02D6881199580E0DF9159
:100CA000CF910895FC016C358AE0780731F4483E15
:100CB00091E2590751F481E008956D3085E078079D
:100CC00021F44A3596E05907B1F3848581110FC0AC
:100CD000858581110CC08685811109C087858111A8
:100CE00006C08089811103C08189882379F06C3422
:100CF000754061F4483692E05907E9F24F3284E0DA
:100D00005807C9F281E0453D5340B1F280E00895B3
:100D100081E0603E09F080E008958B599F4FFC010F
:100D2000808108958C5B9F4FFC0180810895CF9353
:100D3000DF93FC01DA018281882359F0813069F068
:100D400081E023813481232B09F080E0DF91CF9172
:100D500008953483238381E0828383819481009783
:100D6000B1F02D913C911197232B51F3019794836E
:100D70008383EB01888199810196998388838D9182
:100D80009C911197019711969C938E93E6CF1282B6
:100D9000D7CF2F923F924F925F926F927F928F9216
:100DA0009F92AF92BF92CF92DF92EF92FF920F93FA
:100DB0001F93CF93DF9300D01F92CDB7DEB76C01A6
:100DC0007A8369835C834B832C0182E1480E511C3A
:100DD00083E0282E5601A7E0AA0EB11C12E03324AE
:100DE00033944601B0E18B0E911C3601EBE06E0EA0
:100DF000711C29813A812115310509F4D4C0D6012D
:100E000090968C918230F1F0B0F5882309F45AC0A5
:100E1000813089F7AE014F5F5F4FBE016D5F7F4F3D
:100E2000C5010E941404882309F4BDC0D60115969B
:100E3000ED91FC911697808191968C939197818189
:100E400092968C93F6015682458220A2D601929604
:100E50008C919297843011F493961C92F60181A1A3
:100E600082508483258136813087278382878187DA
:100E700084E080A305C0833049F3843009F0BBCF00
:100E8000D60192968C91843039F1853009F44FC0A7
:100E9000823009F079C0AE014F5F5F4FBE016D5FD8
:100EA0007F4FC5010E941404882309F47CC0F60119
:100EB000858984A3D60116969C928E92159790965A
:100EC0001C9297CFF6011483858196819087878342
:100ED0001287118730A29ECFAE014F5F5F4FBE01D8
:100EE0006D5F7F4FC5010E941404882309F45BC025
:100EF000D60155968C9155978F3FE1F656968C9179
:100F000056978130B9F698969C91989757968C9100
:100F1000992351F0882371F2F60133A2928996A3A6
:100F2000938997A385A3C6CF813021F6F5CFAE0173
:100F30004F5F5F4FBE016D5F7F4FC5010E9414047C
:100F4000882389F1D60193968C919397882309F48D
:100F5000B1CF12968D919C91009709F4ABCFDC0133
:100F6000ED91FC910190F081E02D7401D6019596F0
:100F70000C91959797962C91979796964C9196975A
:100F800094966C91199596CFF60121A12250330BBE
:100F9000AE014F5F5F4FBE016D5F7F4FC3010E9487
:100FA0009706811187CF0F900F900F900F90DF91D0
:100FB000CF911F910F91FF90EF90DF90CF90BF9056
:100FC000AF909F908F907F906F905F904F903F90E9
:100FD0002F9008952F923F924F925F926F927F923F
:100FE0008F929F92AF92BF92CF92DF92EF92FF9239
:100FF0000F931F93CF93DF9300D01F92CDB7DEB72F
:101000006C017A8369835C834B832C0182E1480EF7
:10101000511C83E0282E5601A7E0AA0EB11C12E055
:10102000332433944601B0E18B0E911C3601EBE082
:101030006E0E711C29813A812115310509F4D4C045
:10104000D60190968C918230F1F0B0F5882309F4A6
:101050005AC0813089F7AE014F5F5F4FBE016D5FAF
:101060007F4FC5010E941404882309F4BDC0D60136
:101070001596ED91FC911697808191968C9391979E
:10108000818192968C93F6015682458220A2D601E8
:1010900092968C919297843011F493961C92F6015B
:1010A00081A182508483258136813087278382877E
:1010B000818784E080A305C0833049F3843009F040
:1010C000BBCFD60192968C91843039F1853009F4EA
:1010D0004FC0823009F079C0AE014F5F5F4FBE0153
:1010E0006D5F7F4FC5010E941404882309F47CC002
:1010F000F601858984A3D60116969C928E92159747
:1011000090961C9297CFF6011483858196819087E3
:1011100087831287118730A29ECFAE014F5F5F4F4A
:10112000BE016D5F7F4FC5010E941404882309F43E
:101130005BC0D60155968C915597803EE1F6569648
:101140008C9156978130B9F698969C9198975796BE
:101150008C91992351F0882371F2F60133A2928980
:1011600096A3938997A385A3C6CF813021F6F5CFA7
:10117000AE014F5F5F4FBE016D5F7F4FC5010E94A3
:101180001404882389F1D60193968C919397882330
:1011900009F4B1CF12968D919C91009709F4ABCFD1
:1011A000DC01ED91FC910190F081E02D7401D601FC
:1011B00095960C91959797962C91979796964C911A
:1011C000969794966C91199596CFF60121A122508D
:1011D000330BAE014F5F5F4FBE016D5F7F4FC301A9
:1011E0000E949706811187CF0F900F900F900F905C
:1011F000DF91CF911F910F91FF90EF90DF90CF90F3
:10120000BF90AF909F908F907F906F905F904F9026
:101210003F902F90089581E0089508952C980895A7
:101220002C9A089589599F4F0C944905CF93DF93C9
:10123000EC01EA81FB81309709F01995E881F98189
:101240000684F785E02DCE01DF91CF9119940895A2
:101250000F931F93CF93DF93D82FC62F8A0180E57A
:1012600091E00E9440020E940E09D260DEBDF801AA
:101270008C2F882339F00DB407FEFDCF91919EBDD0
:101280008150F7CFC00FD12FD11D0DB407FEFDCF78
:101290000E941009CE01DF91CF911F910F91089507
:1012A0000F931F93CF93DF931F921F92CDB7DEB79B
:1012B000182F062F80E591E00E9440020E940E093F
:1012C000126019830A8362E070E0CE0101960E94E9
:1012D000A1040E9410090F900F90DF91CF911F91F0
:1012E0000F9108958EBD00000DB407FEFDCF8EB5A1
:1012F0000895CF93C82F80E591E00E9440020E949C
:101300000E098C2F0E94720980E00E947209C82F7A
:101310000E9410098C2FCF9108952F923F924F92E7
:101320005F926F927F928F929F92AF92BF92CF9275
:10133000DF92EF92FF920F931F93CF93DF9300D032
:101340001F921F92CDB7DEB79D838C834B017A012C
:101350006901FC0111818FEF810F803408F0AEC06C
:101360000E9408042B013C01F8E84F0EF3E15F1ED8
:10137000611C711CEC81FD81828160E480FD60E86C
:1013800088EE0E945009312C812F90E09A83898346
:10139000E114F10409F444C009811A81E016F10650
:1013A00008F487010B83A601602F80E10E942809C1
:1013B000602F88E30E945009EC81FD8160816062AA
:1013C00080EF0E94500988EC0E94790987FFFBCFCB
:1013D00060E888EC0E94500988EF0E9479098F70BC
:1013E000382EB12CA12C212C3320E1F10E940804CD
:1013F000641975098609970997FF34C0F6E03F160E
:10140000D1F12EE0321699F184E0381209C09FEF35
:10141000A91AB90A8114910471F1A814B90459F5F3
:1014200088EF0E947909EC81FD81928185FB90F91A
:101430009283832D0F900F900F900F900F90DF915C
:10144000CF911F910F91FF90EF90DF90CF90BF90C1
:10145000AF909F908F907F906F905F904F903F9054
:101460002F900895E01AF10AC00ED11E91CF239457
:10147000E3E02E16A9F260E088E30E945009F6012D
:10148000608180E10E9450096B8188E30E945009CD
:10149000EC81FD816081606280EF0E94500988ECE0
:1014A0000E94790987FFFBCF60E888EC0E94500911
:1014B00088EF0E9479098F70382E96CF8AED382EEA
:1014C000B8CFAF92BF92CF92DF92EF92FF920F937D
:1014D0001F93CF93DF93EC01B62EA42E69010E94D7
:1014E00032057C0186EDE114F10409F447C0D7010F
:1014F000ED91FC91119787ED309709F43FC0139659
:101500009C9180E0981731F02081A21629F0339643
:101510008F5FF8CFF0E0E0E0D601ED93FC938BED28
:10152000309761F1228126952695203108F02FE031
:1015300081E090E0A0E0B0E004C0880F991FAA1FEE
:10154000BB1F2A95D2F70197F801918380836B2DF9
:1015500080EE0E94500988ED0E947909D701149607
:101560009C91682F697F992329F0CA58DF4F6881C1
:101570006260682B88ED0E94500980E0DF91CF9176
:101580001F910F91FF90EF90DF90CF90BF90AF90A1
:1015900008958F929F92AF92BF92CF92DF92EF9277
:1015A000FF920F931F93CF93DF93882E962E5A01AD
:1015B0000E9408046B017C0128E8C20E23E1D21EC0
:1015C000E11CF11C10E000E0D0E0C0E098280E948F
:1015D00008046C197D098E099F0997FF1EC0692DAB
:1015E00080EF0E9450090E9408046C197D098E0941
:1015F0009F0997FF09C088EC0E94790987FFF3CF04
:1016000060E888EC0E94500988EF0E947909C82F91
:10161000CF70C43081F0CE30B9F08C2FDF91CF91F4
:101620001F910F91FF90EF90DF90CF90BF90AF9000
:101630009F908F9008950F5F1F4FA114B10439F24E
:101640000A151B0521F6E9CFDF5FD33009F0BFCFC4
:10165000E4CF88EF0E947909807C8034B1F018F4DF
:10166000882301F10895803819F0803CC9F008956D
:1016700088ED0E94790981FD0DC069EC88ED0E941A
:10168000500982E080930203089588ED0E94790951
:1016900081FDF3CF6BEC88ED0E94500983E0F2CF1F
:1016A00081E0F0CF61ED88ED0E94500910920203B5
:1016B00008958F929F92AF92BF920F931F93CF93F3
:1016C000DF93CDB7DEB7A1970FB6F894DEBF0FBE9C
:1016D000CDBF19A2423008F44AE08E010F5D1F4FC2
:1016E000842E912CB12CA12CA50194010E943728A5
:1016F000E62FB901CA01EA3044F5E05DD801EE9366
:101700008D01232B242B252B79F790E080E0109777
:1017100069F0FD0101900020E9F73197AF014A1B04
:101720005B0BBD0183E093E00E946202A1960FB6BD
:10173000F894DEBF0FBECDBFDF91CF911F910F9107
:10174000BF90AF909F908F900895E95CD7CFCF92D4
:10175000DF92FF920F931F93CF93DF93F62E01E05A
:10176000C82FD0E0CC0FDD1FC355DA4F6E01888142
:101770009981DC01ED91FC910280F381E02D2F2D08
:1017800040E060E01995182F803E49F561E088EE51
:101790000E94500966E670E080E090E00E94D60367
:1017A000F60180819181DC01ED91FC910190F08145
:1017B000E02D2F2D40E060E01995182F8D3041F578
:1017C0008FEF800F833088F061E088EE0E9450092F
:1017D00066E670E080E090E00E94D60310C08D3095
:1017E00061F48FEF800F833050F464E670E080E0A6
:1017F00090E00E94D6030F5FBACF882389F2812F31
:10180000DF91CF911F910F91FF90DF90CF900895BE
:101810008823A9F3D9CF0E9461282F923F924F923B
:101820005F926F927F928F929F92AF92BF92CF9270
:10183000DF92EF92FF920F931F93CF93DF9300D02D
:1018400000D01F92CDB7DEB76B015C834B8359018B
:10185000E982F901E080F180FB01F181FA83F9016D
:1018600011821082FB01828160E181FD60E288EEDD
:101870000E945009ED82F9814F2E512C712C612C60
:101880004B815C81F601608180E00E94C90A382E9C
:10189000F6E08F17A9F381115AC088EC0E947909EC
:1018A00082FF78C080E30E947909282E8E151F04DC
:1018B00011F008F02D80F501808191819701281B9E
:1018C000390B3F832E8337FF02C01F821E82822C7A
:1018D000912C8E819F818816990614F49F828E82A6
:1018E00080E591E00E9440020E940E0988E00E947B
:1018F00072094E815F8170E060E0C8010E946F282C
:10190000EE81FF81309721F0BF01C8010E94A10440
:101910002E813F81020F131F0E94100964E088ECA2
:101920000E945009F50180819181880E991E918253
:101930008082FA812F1618F08E149F0410F188EF20
:101940000E947909F601928184FB91F99283832D9B
:1019500027960FB6F894DEBF0FBECDBFDF91CF91B3
:101960001F910F91FF90EF90DF90CF90BF90AF90BD
:101970009F908F907F906F905F904F903F902F90AF
:101980000895F981FF2309F47BCFC301B2010E94BE
:10199000D60376CF80EF382EDACF3F924F925F9208
:1019A0006F927F928F929F92AF92BF92CF92DF926F
:1019B000EF92FF920F931F93CF93DF93CDB7DEB7D4
:1019C00060970FB6F894DEBF0FBECDBF3C01F42E7A
:1019D000322ED02E4DA05EA0188A1F861E861D8630
:1019E0008E01035F1F4F9E01215F3F4F0E94610ADE
:1019F000182F81116DC03982DA82EB82CC821E826F
:101A00001D82B886AF82AE014F5F5F4F68E080E213
:101A10000E9428094D855E856F2D80E10E94C90ACC
:101A2000182F811155C041145104F1F1EF85F88947
:101A3000828137FE3FC0826082836501C114D10478
:101A400009F465C09C868B864D855E856F85788997
:101A5000E12C82019E01255F3F4FC3010E940D0CC6
:101A6000182F863059F3811133C08FA198A50097A4
:101A7000A1F06B857C85DC01ED91FC9111970190C3
:101A8000F081E02DC5018C199D099A8789879E01F7
:101A9000275F3F4FA201CD0119958B859C85C81A00
:101AA000D90A8815990550F64D855E8537FE29C0FF
:101AB00080EA28C0816082836D857E859201A401C1
:101AC000CF010E948D09182F4D855E858823C9F0AE
:101AD000812F60960FB6F894DEBF0FBECDBFDF91A9
:101AE000CF911F910F91FF90EF90DF90CF90BF901B
:101AF000AF909F908F907F906F905F904F903F90AE
:101B0000089580E86F2D0E94C90A182FE1CF1111A6
:101B1000DFCF4D855E85CCCF8F929F92AF92BF92E3
:101B2000CF92EF920F93CF931F921F921F921F920B
:101B3000912C812CB12CA12CC12CE42E05E020E0AD
:101B400040E00E94CD0CC82F6CE271E080E090E094
:101B50000E94D6030F900F900F900F908C2FCF9173
:101B60000F91EF90CF90BF90AF909F908F9008957E
:101B70003F924F925F926F927F928F929F92AF921D
:101B8000BF92CF92DF92EF92FF920F931F93CF936A
:101B9000DF93CDB7DEB7C054D1090FB6F894DEBFDE
:101BA0000FBECDBF3C01162FD22E332E1F921F9297
:101BB000CE0101962C019F938F9399E0892E912C51
:101BC00029E0A22EB12C32E0C32EE42E06E020E85C
:101BD00040E0C3010E94CD0C0F900F900F900F902A
:101BE000811113C0AB80BC803F92DF925F924F9215
:101BF00080E4882E912C20E840E0612FC3010E94F0
:101C0000CD0C0F900F900F900F90C05CDF4F0FB670
:101C1000F894DEBF0FBECDBFDF91CF911F910F9122
:101C2000FF90EF90DF90CF90BF90AF909F908F90FC
:101C30007F906F905F904F903F9008952F923F92CA
:101C40004F925F926F927F928F929F92AF92BF92CC
:101C5000CF92EF92FF920F931F93CF93DF93CDB765
:101C6000DEB768970FB6F894DEBF0FBECDBF3C015C
:101C7000162FF42E022F0E94DF05C3018C5B9F4FAD
:101C8000988F8F8BDC018C918111A9C0F301EE5BE1
:101C9000FF4FFC8BEB8B20803180D101ED91FC91CB
:101CA0000190F081E02D60E0C10119952C010097B1
:101CB00009F497C0FC010190F081E02DFE8BED8BC3
:101CC000EF2B09F490C0C3018B5B9F4FD20111969B
:101CD0009C938E9314960C931F921F92CE010196A3
:101CE0009F938F9382E1882E912C92E1A92EB12CA3
:101CF000CC24C394E12C06E020E840E060E0EB89CE
:101D0000FC89808191810E94CD0C082FED89FE898C
:101D1000D201ED93FC930F900F900F900F908111D3
:101D200052C0D101ED91FC910280F381E02D2F2D65
:101D300040E0612FC1011995EF89F88D808304ED92
:101D40008823B1F09D81993061F1F301EA5BFF4F87
:101D50008885808332968A898083799689859A8559
:101D60009183808332978B859C859183808300EE5D
:101D7000802F68960FB6F894DEBF0FBECDBFDF91FF
:101D8000CF911F910F91FF90EF90CF90BF90AF90A8
:101D90009F908F907F906F905F904F903F902F908B
:101DA000089540E0682FAB89BC898D919C910E9479
:101DB0008C0DD301ED91FC910480F581E02DC301E0
:101DC000199501EDD5CF8D3009F001EED301ED91DC
:101DD000FC910480F581E02DC3011995C9CF09ED6F
:101DE000C7CF06EDC5CF07EDC3CF8F929F92AF92BD
:101DF000BF92CF92EF920F931F921F921F921F924A
:101E0000912C812CB12CA12CC12CE22E09E020E0D8
:101E10000E94CD0C0F900F900F900F900F91EF90AC
:101E2000CF90BF90AF909F908F9008958F929F9288
:101E3000AF92BF92CF92EF920F93FC01EF58FF4FFA
:101E4000208131812E7F31832083DC01AB5BBF4F4A
:101E5000BD978E5B9F4F1F921F927F936F934A0196
:101E60005A01C12CE12C00E020E24C916081FC0180
:101E7000808191810E94CD0C0F900F900F900F9058
:101E80000F91EF90CF90BF90AF909F908F9008955B
:101E9000FC01EF58FF4F208131812B7F318320835C
:101EA000339626E02083DC01AB58BF4F24E02C930F
:101EB000119623E02C9311966C9311967F707C936E
:101EC000119623E12C9346E050E0BF010C94160FCD
:101ED000CF93DF93FC01BC016C587F4F8DE0DB0199
:101EE0008C93119684E08C93119687E18C931196D4
:101EF00084898C93119685898C93119686898C930D
:101F0000119687898C931196808D8C931196818D73
:101F10008C9323ADCF0183589F4F222389F126E074
:101F2000EC01288356978C918823E9F0AA55B109D2
:101F3000CF0142962D91ED01CF58DF4F2883A8178E
:101F4000B907C1F7DF01AC57BF4FCF0182579F4F91
:101F50001D928A179B07E1F74AE150E0CF01DF911C
:101F6000CF910C94160FDF015496CF014A962D9114
:101F7000ED01C759DF4F2883A817B907C1F7E2CF92
:101F8000A285B385ED0109900020E9F72197AE0104
:101F90004A1B5B0BEC01488320E0822F90E0ED01AF
:101FA00009900020E9F72197CA1BDB0B8C179D07CE
:101FB00050F082589F4FDF01A80FB91F203160F603
:101FC0001D922F5FFBCFEF01C80FD91FAE01425802
:101FD0005F4F8A0F9B1FEC018881EA0188832F5F86
:101FE000DCCFFC01DC01AF58BF4F8D919C91119764
:101FF0008D7F9E7F8D939C93BF016C587F4F85E0B2
:10200000DB018C93119684E08C9311968DE08C9378
:10201000119684898C93119685898C931196868963
:102020008C93119687898C931196808D8C93119641
:10203000818D8C93119688E18C9311968CEC8C9306
:10204000119681E08C9311961C9211961C92119618
:102050001C9211961C9240E150E0CF010C94160F97
:102060002F923F924F925F926F927F928F929F92A8
:10207000AF92BF92CF92DF92EF92FF920F931F9396
:10208000CF93DF93CDB7DEB7AE970FB6F894DEBF30
:102090000FBECDBF3C01D22EFC01E85BFF4F20817B
:1020A0002CA710821C0132E4230E311CD1010D91AA
:1020B0001C912C01B4E44B0E511CD801ED91FC9104
:1020C0000190F081E02DD2016C91C80119957C013D
:1020D000892BE1F416EDB12E8B2DAE960FB6F89448
:1020E000DEBF0FBECDBFDF91CF911F910F91FF904B
:1020F000EF90DF90CF90BF90AF909F908F907F90A8
:102100006F905F904F903F902F9008956CE271E038
:1021100080E090E00E94D603F201408160E0D101AE
:102120008D919C910E948C0DB82E882359F0F70157
:102130001482D301ED91FC910480F581E02DC3015F
:102140001995CACFD70114961C92D801ED91FC9134
:102150000190F081E02DD2016C91C8011995009792
:1021600009F4B8CFFC01D482D1018D919C91F30187
:10217000EB5BFF4FFBA7EAA7D2011C91EF2B09F401
:102180007CC1612F0E943205FC01892B19F4B6ED48
:10219000BB2ECFCF12832AA53BA53183208381E0BC
:1021A0008383430131E6830E911CD4018D919C9170
:1021B0008C34954009F0C4C08301015A1F4FF801C7
:1021C000808191818836F2E09F0741F08F3224E0D0
:1021D000920721F0853D934009F0B2C064E670E0BB
:1021E00080E090E00E94D60321E0AAA5BBA54C9117
:1021F000F2016081D1018D919C910E94F50EB82E63
:10220000811197CFF301848581110FC085858111DC
:102210000CC08685811109C08785811106C080891F
:10222000811103C081898823F1F1D8018D919C919E
:10223000A301445F5F4FB3016E5E7F4F8836B2E00B
:102240009B0721F08F32944009F04BC081E08983D5
:102250001A82DB01CE0103962E91FC012193CF015E
:102260004A175B07C9F71F921F92CE0101969F93F1
:102270008F9378E0872E912CE8E0AE2EB12CF3E01E
:10228000CF2EA5EFEA2E09E021E2AAA5BBA54C912D
:10229000F2016081D1018D919C910E94CD0C0F9033
:1022A0000F900F900F9020E0AAA5BBA54C91F201D2
:1022B0006081D1018D919C910E94F50E40E0F20168
:1022C0006081D1018D919C910E948C0DD301ED9183
:1022D000FC910480F581E02DC301199521EDB22E0A
:1022E000FBCE85E0898380E1888781E0898782E071
:1022F0008A8782E18B87FA01CE0102962191DC0167
:102300002D93CD01E617F707C9F71F921F92CE0153
:1023100001969F938F933BE0832E912C4BE0A42E4C
:10232000B12C53E0C52E65E0E62E09E021E2EAA5D6
:10233000FBA54081D2016C91F10180819181ADCFEB
:10234000A12CF30132967F018E010F5E1F4F6301B6
:10235000FFE5CF0ED11C93012E5A3F4F3EA72DA76C
:102360003CA5A31609F446C0D4018D919C918C35EF
:10237000BAE09B0789F5F60180819181883E914200
:10238000A1F5E4E0F2E0FA83E983FC82EB821D82AE
:102390001A861B861E86188A1F8619A21AA21BA2DD
:1023A00019A61F830E83198708871D870C879E0136
:1023B0002F5F3F4F4A2DD2016C91F10180819181B5
:1023C0000E94B80DB82E8111B4CEADA5BEA58C91DA
:1023D000843080F4A394C4CF8D30954031F4D6017D
:1023E0008D919C918A35964061F22AE032E03A83E1
:1023F0002983CBCFF301EE5AFF4F0081F101808199
:102400009181D2011C91043088F1612F0E94320524
:10241000FC01892B09F4BBCE12832AA53BA531838D
:1024200020830383F301EF5AFF4F2081AAA5BBA5A8
:102430004C91F2016081D1018D919C910E94F50E29
:10244000B82E811176CEF301E159FF4F84E690E07A
:102450009183808332971182108231971082F30129
:102460001482EB59FF4F81E0808336CE40E0612F2C
:102470000E948C0D91EDB92E5CCE88EDB82E59CE10
:102480008F929F92AF92BF92CF92DF92EF920F9373
:102490001F93CF93DF9300D01F92CDB7DEB76C01AF
:1024A000590148011C821B821A8219828E010F5F1A
:1024B0001F4F9E012D5F3F4F0E94610A811109C08D
:1024C00049815A816B817C8184019501C6010E94FA
:1024D0000D0C0F900F900F900F90DF91CF911F91E7
:1024E0000F91EF90DF90CF90BF90AF909F908F9023
:1024F00008958F929F92AF92BF92CF92DF92EF9208
:102500000F931F93CF93DF9300D01F92CDB7DEB709
:102510008DB69EB6A22FB0E05D0138E0A30EB11CCF
:10252000EDB7FEB7EA19FB090FB6F894FEBF0FBE70
:10253000EDBF31966F01EDB7FEB761837F707062BA
:10254000F601718334E0320F3283BD016C5F7F4F3F
:102550007383248315820683E7822DB73EB7275FF6
:102560003F4F8A01B801641B750B6A177B0738F46B
:10257000F80161918F01F90161939F01F3CFFC0193
:10258000EE5BFF4FA081B1813C9640813A9760811C
:102590001C821B821A8219828E010F5F1F4F9E01BF
:1025A0002D5F3F4FCD010E94610A81110AC06981F0
:1025B0007A819601A5018B819C810E948D098823D7
:1025C00031F064E670E080E090E00E94D6030FB640
:1025D000F8949EBE0FBE8DBE0F900F900F900F907F
:1025E000DF91CF911F910F91EF90DF90CF90BF902F
:1025F000AF909F908F900895EF920F93FC01AB01E5
:1026000066817781E48803892AE0848195810E942C
:1026100079120F91EF900895EF920F93CF93DF937C
:102620001F92CDB7DEB7FC01DC01A75ABF4F8C91DA
:10263000823008F01C928C91806789836681778153
:10264000E784068521E0AE014F5F5F4F848195816D
:102650000E9479120F90DF91CF910F91EF90089522
:10266000EF920F93CF93DF93EC01FC01E55AFF4FFC
:102670008081882379F18C819D812C852F5F6E81EB
:102680007F812C87AC014C505F4F36E0FA013083DC
:1026900031962083319624E02083319610822B8955
:1026A000319620832C8931962083FE01E05AFF4F1A
:1026B0002081FC01E650FF4F2083FE01EF59FF4FC0
:1026C0002081FC01E550FF4F2083E12C01E028E050
:1026D0000E9479128C819D812C852F5F2C876E81C1
:1026E0007F81AC014C505F4F36E0FA013083319668
:1026F0002083319624E020833196108228893196F8
:102700002083298931962083FE01E25AFF4F2081E0
:10271000FC01E650FF4F2083FE01E15AFF4F20816C
:10272000FC01E550FF4F2083E12C01E028E00E94EE
:102730007912E881F9810480F581E02DCE011995A7
:102740008EE08A8BCE59DF4F89E08883DF91CF916D
:102750000F91EF900895EF920F93FC01EC50FF4F13
:1027600054E05083DC01AB50BF4F4C93119648E0CE
:102770004C9311961C92D9014C91DC01A850BF4F8B
:102780004C93D90111962C91DC01A750BF4F2C938B
:1027900011961C9211961C92119621E02C93119681
:1027A00022E02C9311962FEF2C9311962C93E12C71
:1027B00001E02CE0AF010E9479120F91EF90089593
:1027C000EF920F931F93CF93DF93D801FC01EC504E
:1027D000FF4F53E05083EC01CB50DF4F48832196ED
:1027E00048E0488321961882E9014881EC01C850ED
:1027F000DF4F4883E9012981EC01C750DF4F28836F
:102800002C912196288311962C91DC01A550BF4F65
:102810002C931196EC9211961C9211961C92119683
:102820001C92E12C01E02CE0AF010E947912DF91B3
:10283000CF911F910F91EF9008958F929F92AF9239
:10284000BF92CF92DF92EF920F931F93CF93DF93BC
:102850006C0122E6C20ED11CF6012081211148C074
:10286000EC01EC81FD8186AD882309F44DC08581A2
:1028700081114AC08D85811147C0DE01A65ABF4F24
:102880008C91811141C081E085838C938C819D81E5
:10289000FC01628973897F836E83188619861A8684
:1028A0001B861C86AC014C505F4F12E0FA0110836E
:1028B00031961082319624E0208331961082319631
:1028C00021E1208331961082FE01E45AFF4F2081DE
:1028D000FC01E650FF4F2083C35ADF4F2881319619
:1028E0002083E12C01E028E00E947912F601108398
:1028F000DF91CF911F910F91EF90DF90CF90BF901C
:10290000AF909F908F900895888580FFF1CF5E01F2
:102910002EE0A20EB11C4E018CE5880E911C6E813A
:102920007F81EE24E394850194014C85CF010E94C0
:10293000E01361E070E080E090E00E94D6036E81D9
:102940007F81E12C94014C858C819D810E94E01354
:102950008C858F5F8C8761E070E080E090E00E9462
:10296000D6036E817F8195014C858C819D810E946B
:10297000AB1384E0F6018083BBCF8F929F92AF921E
:10298000BF92CF92DF92EF92FF920F931F93CF935C
:10299000DF93EC01FB018D8581111AC080858230A7
:1029A000B9F484859585019799F4AC81BD8116961B
:1029B0008C91169781110CC081E016968C93AC8196
:1029C000BD8152968D919C919F838E838AE08A8BE4
:1029D0004C815D81DA0115968C91159781112BC080
:1029E000DF968C91882339F18D85811124C0CE0129
:1029F000865A9F4FDC012C9121111DC02085223069
:102A0000D1F42485358521313105A9F4DA01DF9629
:102A10001C92AC81BD8121E015962C93DC012C9396
:102A2000AC81BD8152968D919C919F838E83DE01F6
:102A3000AE59BF4F1C926E817F812081CB019927B7
:102A40002817190609F0BCC32181872F99278062B6
:102A50002817190609F0B4C38F0196818781268152
:102A600037812130310509F07DC28085813079F1CF
:102A7000833009F0BBC080899189892B41F5828917
:102A80009389892B21F58685FE01E05AFF4F9081BD
:102A9000891368C0F8012785FE01EF59FF4F908127
:102AA000291360C0D80119964C9119974C871C9630
:102AB0008C911C978B8B1D968C918C8B4F5F4C87C8
:102AC0009E012D5E3F4F8C819D810E94AB138A89B0
:102AD0008B3009F443C38E3009F452C38A3009F0B5
:102AE00023C388859985AA85BB8590FFE3C29E7F15
:102AF00088879987AA87BB876E817F81EE24E394BC
:102B00006E01F3E1CF0ED11C86015E0180E6A80EB6
:102B1000B11C95014C858C819D810E94E01361E080
:102B200070E080E090E00E94D6036E817F81E12C0E
:102B300095014C858C819D810E94E0138C858F5F6F
:102B40008C8761E070E080E090E00E94D6036E81A7
:102B50007F8196014C858C819D810E94AB138BE017
:102B60008A8BE2C2FE01E45AFF4F908189131EC096
:102B7000F8012785FE01E35AFF4F9081291316C003
:102B8000D80119968C9119978C871C968C911C975B
:102B90008E871D968C918F8788859985AA85BB85A0
:102BA000846088879987AA87BB8791CFFE01E25A04
:102BB000FF4F908189138BCFF8019785FE01E15A71
:102BC000FF4F8081981383CFD80119968C91199764
:102BD0008C871C968C911C97888B1D968C91898B69
:102BE00088859985AA85BB858064DBCF823079F59D
:102BF000848595858130910561F481858C878685F2
:102C00008B8B87858C8B88859985AA85BB85916000
:102C1000C8CF8131910561F481858C8786858E8747
:102C200087858F8788859985AA85BB858160B9CF7F
:102C3000439709F04CCF81858C878685888B878563
:102C4000898B88859985AA85BB858061AACF8530C7
:102C500009F04DC0DF0180899189892B09F037CFB8
:102C60008485FE01E05AFF4F9081891310C01D96A4
:102C70002C911D9731969081291309C019968C913A
:102C80008C8788859985AA85BB8592608ACFFE014D
:102C9000E45AFF4F9081891312C0F8012585FE0187
:102CA000E35AFF4F908129130AC0D80119968C91DD
:102CB0008C8788859985AA85BB85826072CFFE0145
:102CC000E25AFF4F9081891302CFF8019585FE01EA
:102CD000E15AFF4F80819813FACED80119968C9152
:102CE0008C8788859985AA85BB8580625ACF843078
:102CF00009F03EC08485FE01E05AFF4F90818913A0
:102D000012C0D8011D962C911D97319690812913E0
:102D10000AC09E012D5E3F4F19964C918C819D817A
:102D20000E94F922D4CEFE01E45AFF4F908189130C
:102D30000DC0F8012585FE01E35AFF4F908129134C
:102D400005C09E01225F3F4FD801E6CFFE01E25A47
:102D5000FF4F90818913BBCEF8019585FE01E15AA2
:102D6000FF4F80819E01205F3F4F9813B0CEECCF84
:102D7000863009F096C08485FE01E05AFF4F9081AD
:102D8000891311C0D8011D962C911D973196908101
:102D9000291309C019968C918C8788859985AA85F5
:102DA000BB859460FECEDE01A45ABF4F9C9189136F
:102DB00040C06E01EDE5CE0ED11CF8012585F6016F
:102DC0009081291336C0F80121852C878C819D8143
:102DD000AC014C505F4F37E0FA0130838C010B504F
:102DE0001F4FF80120839C012A503F4F14E0F90146
:102DF00010832F5F3F4FF90110822C91DC01A85006
:102E0000BF4F2C93D6012C91329620832E8531967C
:102E100020832F8531962083E12C01E028E00E9459
:102E20007912E881F9810480F581E02DCE011995B0
:102E30004ECEDE01A25ABF4F9C91891348CE6E013F
:102E4000EFE5CE0ED11CF8019585F601808198132F
:102E50003ECEF80121852C878C819D81AC014C50A0
:102E60005F4F37E0FA0130838C010B501F4FF801A0
:102E700020839C012A503F4F14E0F90110832F5FFB
:102E80003F4FF90110822C91DC01A850BF4F2C93C9
:102E9000D6012C9132962083288931962083298966
:102EA000B9CF873099F584859B8989130CC0258516
:102EB0009C89291308C081858C8788859985AA8576
:102EC000BB8590646ECE9E85891310C0D8011D9677
:102ED0002C911D979F85291309C019968C918C8779
:102EE00088859985AA85BB8588605BCE988989137A
:102EF000EECDF801958589899813E9CD81858C8778
:102F000088859985AA85BB8580684BCE8A3009F073
:102F1000DECD21852C878C819D813585A485AC01F2
:102F20004C505F4FBBE0FA01B0833196208331965D
:102F300028E02083319610823196A0833196308329
:102F4000319610823196108231961082319610821D
:102F50003196108231961082E12C01E02CE00E9423
:102F60007912B5CDFE01E05AFF4F2081921342C085
:102F70003196208182133EC0D80118968C91189703
:102F80008230C1F483E0898F19968C9119978A8FCA
:102F90001A968C918B8F1C8E85E08D8F1E8E1F8EC6
:102FA00018A219A21AA2BE01675E7F4FCE010E942D
:102FB000FC128DCD843079F485E0898FF8019185FC
:102FC0009A8F92859B8F1C8E8D8F1E8E82E08F8FA5
:102FD00085E388A3E6CF863009F079CD1A968C91E7
:102FE0001A9719969C9127E0298F9A8F8B8F1C8EA8
:102FF00085E0EACFFE01E25AFF4F208192133EC0E6
:103000003196208182133AC0F8018085813A09F017
:103010005ECD0E940804FE01ED59FF4F608371836D
:1030200082839383D8011496FC906FEF6F0DE88133
:10303000F9810284F385E02DA801475F5F4FCE013F
:103040001995F8018185813031F0823009F03FCD4A
:103050008F89988D02C08D899E89009709F437CD9C
:10306000065F1F4F2EEF2F0DDC01ED91FC910190BB
:10307000F081E02D40E0BE01199529CDFE01E45A12
:10308000FF4F2081921323CD3196908189131FCD5C
:10309000F8018085833A09F01ACDA801475F5F4F98
:1030A00064816150E881F9810484F585E02DCE01C9
:1030B00019950DCD92FF38C09B7F88879987AA8785
:1030C000BB87FE01E55AFF4F10828C819D812C85C4
:1030D0006E817F81AC014C505F4F37E0DA013C9349
:1030E000FC01EB50FF4F2083319624E02083319682
:1030F0001082FE01E05AFF4F2081FC01E850FF4F93
:103100002083FE01EF59FF4F2081FC01E750FF4F64
:1031100020832B89319620832C8931962083E12CC2
:1031200001E028E00E9479126E01B2E6CB0ED11CBC
:10313000D601EC91E250E83008F042C0F0E098850A
:103140008827EA55F74E8F4F0C94592826193619BF
:10315000D818C319ED1870197B19911988859985AC
:10316000AA85BB8591FFE0CF9D7F88879987AA8735
:10317000BB8781E0FE01E55AFF4F80838AE0F0CCF7
:1031800088859985AA85BB8596FFCECF6E817F8184
:103190008C819D810E94480F8FEF9FEF9F838E83CC
:1031A000E881F9810480F581E02DCE011995BCCF2D
:1031B00091FF06C0CE010E940C1386E0F6018083C9
:1031C000DF91CF911F910F91FF90EF90DF90CF9003
:1031D000BF90AF909F908F90089594FFF1CF5E01C4
:1031E000F0E1AF0EB11C4E018EE5880E911C6E8190
:1031F0007F81EE24E394850194014C858C819D812F
:103200000E94E01361E070E080E090E00E94D6034D
:103210006E817F81E12C94014C858C819D810E947F
:10322000E0138C858F5F8C8761E070E080E090E038
:103230000E94D6036E817F8195014C858C819D8192
:103240000E94AB1388E0D6018C93BACF92FFB8CF1F
:103250004C854F5F4C879E01225F3F4F6E817F817F
:103260008C819D810E94AB1383E0A8CF91FFA8CFF2
:10327000CE010E940C1361E070E080E090E00E94BB
:10328000D6032C852F5F2C878C819D816E817F8159
:10329000AC014C505F4F32E0DA013C93FC01EB5043
:1032A000FF4F2083319624E020833196108231969F
:1032B00023E1208331961082FE01E25AFF4F2081E4
:1032C000FC01E650FF4F2083C15ADF4F2881319621
:1032D0002083E12C01E028E00E94791287E06ECF84
:1032E00096FF6ECF4C854F5F4C879E01205F3F4F0E
:1032F0006E817F81A3CF95FF63CFEC81FD8116AEF8
:10330000EC81FD81E05CFF4F108211E01D87E881B8
:10331000F9810084F185E02DCE011995F601108325
:103320004FCF97FF4DCF2C852F5F2C878C819D81B0
:103330006E817F81AC014C505F4F36E0DA013C93E7
:10334000FC01EB50FF4F2083319624E0208331961F
:1033500010822E85319620832F8531962083FE01A1
:10336000E45AFF4F2081FC01E650FF4F2083C35AEF
:10337000DF4F288131962083E12C01E028E00E9474
:10338000791285E01BCF93FF1BCF6E817F818C81EB
:103390009D810E94480F8FEF9FEF9F838E83188639
:1033A00019861A861B86D6011C920ACFCF92DF920D
:1033B000EF920F93CF93DF93CDB7DEB7CF54D10900
:1033C0000FB6F894DEBF0FBECDBF6C01FB01CE017E
:1033D00003962DE4DC011D922A95E9F782E58983A5
:1033E00081E18A8380E88B838FEF8D838181888759
:1033F0008081898782818A8783818B8784818C877A
:1034000085818D8786818E871782F6016681778117
:10341000E78406852FE4AE014F5F5F4F848195817D
:103420000E947912C15BDF4F0FB6F894DEBF0FBE6A
:10343000CDBFDF91CF910F91EF90DF90CF900895A6
:10344000875691090C94D619CF92DF92EF920F9381
:10345000CF93DF931F921F92CDB7DEB76C018959CE
:103460009F4F0E94490583E4898382E08A83F601A5
:1034700066817781E784068522E0AE014F5F5F4F6A
:10348000848195810E947912F60182819381892B32
:1034900059F4E355FF4F10823196108231968FEF29
:1034A0008083339681E080830F900F90DF91CF91DE
:1034B0000F91EF90DF90CF9008953F924F925F92DF
:1034C0006F927F928F929F92AF92BF92CF92DF9234
:1034D000EF92FF920F931F93CF93DF9300D000D012
:1034E00000D01F92CDB7DEB7FC01EB59FF4F208112
:1034F000222309F448C36C010E94080486010D5A76
:103500001F4FD8018D909D90AD90BC90681979099E
:103510008A099B0997FD37C30E940804F601ED59FB
:10352000FF4FFE83ED83E0806E0D711D811D911DA7
:10353000D8016D937D938D939C93139780E490E0D5
:103540009A8389835601B4E7AB0EB11C7F97F88745
:10355000EF8396012E5B3F4F3A87298785019E01B5
:103560002F5F3F4F34964081AF81B8856C91E985DC
:10357000FA85808191810E9440128B7F91F4D50160
:103580008C91873009F4A0C108F04DC0833009F454
:1035900067C108F02DC0813009F41BC1823009F4E5
:1035A0005FC03601B4EB6B0E711C860104591F4FCE
:1035B000D801EC91E43108F09FC2F0E08827EC518B
:1035C000F54E8F4F0C945928551DDC1D271E401EAB
:1035D0005B1ECD1E411F771FE01FED1F18205420DA
:1035E0009F204E217C1D6B217C21F11E101F391F55
:1035F000853009F45DC108F483C1F601EA58FF4F34
:103600008081D60181110DC2DB968C91DB978823D6
:1036100009F4F9C1D9968C91D9978111F4C181E04F
:10362000D9968C93BECF873109F4C1C180F48E3016
:1036300009F476C0863109F0B4CFD601DB968C91BF
:10364000882309F486C1C6010E94680FAACF81337E
:1036500009F4EFC1833309F423C28F3209F0A1CFFB
:10366000F601EA58FF4F1081112309F49ACFE12F98
:10367000EE0FEE0FEE0F99E0199F902D112482307E
:1036800009F4E92FF0E0E958FF4FEC0DFD1D90E043
:1036900080E03601B9E66B0E711C960126593F4F4A
:1036A000A60145595F4FB601605C7F4F811708F056
:1036B00078CF0081D3010C93F180D901FC92E28094
:1036C000DA01EC92D601DB969C90992009F4A8C00F
:1036D000E110A6C0BF2DBF70A5E0BA13A1C0B02FE6
:1036E000BC7009F49DC021E0F601E959FF4F208329
:1036F00026E0289FF001299FF00D1124E958FF4F83
:10370000EC0DFD1DD601549686E091919D9381505C
:10371000E1F7F601EF58FF4F8081918180681EC06C
:10372000F601E758FF4F808181113BCF38978081A8
:1037300091819C01216031832083D601A958BF4F1C
:103740002C91213071F411962C91203109F029CF60
:1037500012962C91D601D8962C9381649183808304
:1037600020CF2430C9F4D601A858BF4F2C91203166
:1037700009F017CF91FD0BC012962C91211107C0B3
:1037800018962C915E9723FF05C021E02C93816051
:103790009260E4CF1C92FBCF293009F002CFD60112
:1037A000A858BF4F2C91203109F0FBCEB601645FC1
:1037B0007F4F96012E5E3F4FAB0142595F4FDA01BA
:1037C0004C91DB014D93BD01A217B307A9F78162AC
:1037D000C5CFF601ED58FF4F80818530E8F0D60166
:1037E000DB968C919601205C3F4F811104C0D9017A
:1037F0008C91882389F01082D601D9961C92D99792
:10380000DB961C92DB97DE961C92D9011C928AE013
:10381000D601A459BF4F8C9380818F5F8083C1CE26
:10382000DB01EC90EE20C9F0BF2DBF70A5E0BA130C
:1038300014C0087C91F026E0289FF001299FF00D2C
:103840001124E958FF4FEC0DFD1DD601549686E07A
:1038500091919D938150E1F75CCF0196339626CFED
:10386000F601EF58FF4F20813181C90191609183AA
:103870008083D601AA58BF4F8C91811114C0129633
:103880008C9190E0982F882788279F7011974C91F2
:10389000842BD60153969C938E935297226031606D
:1038A000318320837ECE86E0F601E459FF4FB6CF08
:1038B000F601EA58FF4F8081811173CE35978081E0
:1038C00091818D7F84604ACFF601EA58FF4F808155
:1038D000811167CEEC55F1099601285C3F4FDF015D
:1038E000AD59BF4F8C918193882319F0E217F307EC
:1038F000B1F7F601EF58FF4F8081918188602ECF9C
:10390000F6017496C6014A96DF01AE59BF4F2C915D
:103910002193E817F907C1F7F601E458FF4F8081BA
:1039200073978083749690817397908374962081A7
:10393000739720839F70953029F4887C19F081E07B
:10394000F60187AFF601EF58FF4F808191818061CA
:1039500005CFF60182859385892B09F074CE8EE020
:10396000D5018C9384E0EB58FF4F808386E031963D
:103970008083F6018489E958FF4F8083D6015596EC
:103980008C91559731968083F6018689E758FF4FD1
:10399000808357968C91579731968083F601808D5E
:1039A000E558FF4F808359968C91319628C08CE062
:1039B000F501808384E0F601EB58FF4F808386E0B9
:1039C00031968083D60154968C915497319680839A
:1039D000F6018589E858FF4F808356968C9156975B
:1039E00031968083F6018789E658FF4F8083589689
:1039F0008C9131968083F601818DE458FF4F80834E
:103A000049E050E048C0F601E05CFF4F8081882328
:103A100009F4C7CDF60186AD8111C3CD81E086AF33
:103A2000C0CD52966D917C91C6010E94480F80E1F5
:103A30003BCF8BE2F501808384E0F601EB58FF4F2A
:103A4000808389E031968083D60154968C91549777
:103A500031968083F6018589E858FF4F808356961A
:103A60008C91569731968083F6018789E658FF4FEF
:103A7000808358968C9131968083F601818DE4582D
:103A8000FF4F808383E03196808331961082319698
:103A900010824CE050E0B501C6010E94160F81CDA6
:103AA0008CE28C9384E0F6015ECF7601BDE6EB0EEE
:103AB000F11CF70180819181019691838083329678
:103AC0002081318128173907B8F43296118210828B
:103AD00083E0D5018C938CE03496808331961082FC
:103AE00043E050E0B501C6010E94160F81E0F801E5
:103AF0008083D7011D921C9280E490E09A83898391
:103B0000F601E55BFF4FAD81BE81EC9083019E0124
:103B10002F5F3F4F4081EF81F8856081A985BA858D
:103B20008D919C910E9440128601095A1F4FF60107
:103B3000E15AFF4F6F01811116C089819A81892B4B
:103B400091F07801D7018D919D917D01009741F011
:103B5000DC01ED91FC910190F081E02DB30119950C
:103B6000CE14DF0479F7F801819191918F010097CC
:103B700039F0DC01ED91FC910280F381E02D199583
:103B8000C016D10681F780E02A960FB6F894DEBF02
:103B90000FBECDBFDF91CF911F910F91FF90EF909E
:103BA000DF90CF90BF90AF909F908F907F906F905D
:103BB0005F904F903F900895F601E359FF4F808149
:103BC0009181019691838083D601AF58BF4F2C918C
:103BD00020FF1FC01182108282E0F801808384E2FE
:103BE000D5018C938CE0F601EB58FF4F808383E086
:103BF0003196808384E03196808388E0319680839B
:103C00003196108246E050E0B501C6010E94160FC1
:103C100073CFD601A159BF4F2D913C911197281711
:103C2000390708F069CF4AE0429FC001439F900DD9
:103C30001124813D27E0920738F48D939C93D8019D
:103C40001C921182108258CF80ED97E0F6CFF601DA
:103C5000EF58FF4F8081918180FF4ECF23E02C935E
:103C60008F7D9183808389E0F501808380E1F60177
:103C7000EB58FF4F80833196108243E050E0C4CF71
:103C8000F601EF58FF4F8081918185FF35CF8F7B03
:103C90009183808381E0D5018C9380E13496808389
:103CA0003196108243E050E0B501C6010E94160F24
:103CB00084E0F80181C1A6014F585F4FDA018D9170
:103CC0009C9186FF19CFD6011896ED91FC91309703
:103CD00009F441C083E1D5018C938CE0D601AB5847
:103CE000BF4F8C93DF010D900020E9F7C6018A5881
:103CF0009F4F2A2F2E1BDC012C9360E0262F30E0F3
:103D0000DF010D900020E9F7AD01415051094E1B34
:103D10005F0BC90103968C0D9D1D8C589F4F241776
:103D2000350740F42E0F3F1FD9012C91DC012C9355
:103D30006F5FE4CFDC011C92DF010D900020E9F7FA
:103D4000AD014E1B5F0B4D5F5F4FB501C6010E9479
:103D5000160F85E0AECFF601EF5BFF4F20812223E7
:103D600009F48DC09D7FDA018D939C9384E0F50169
:103D7000808380E1F601EB58FF4F808381E031962C
:103D800080833196108244E050E0B501C6010E9464
:103D9000160F81E1D8018C93AFCEF601EF58FF4F9B
:103DA0008081918180FFA8CED601AF5BBF4F2C915F
:103DB000222309F464C09D7F9183808384E0D50130
:103DC0008C9380E13496808381E0319680833196B4
:103DD000108244E050E0B501C6010E94160F81E157
:103DE00068CFF601EF58FF4F8081918191FF84CE1B
:103DF0003D978081882309F442C086E5D5018C93E4
:103E00008CE07196808381E0319680833196808347
:103E100044E050E0B501C6010E94160F82E149CF8F
:103E2000F601EF58FF4F808180FF66CE81E0D5011B
:103E30008C938CE03496808388E0319680838FEF7A
:103E4000319680833196808331968083319680834A
:103E5000319680839FE131969083319680833196AD
:103E600010824BE050E0B501C6010E94160F83E1BD
:103E700020CFF601EF58FF4F808180FF3DCE86E0D6
:103E800018CFF601E05CFF4F8081811106C0D6019A
:103E9000DB968C91882309F4C5C0F601EF58FF4FDB
:103EA000808191818F779183808381E0F501808388
:103EB00084E0F601EB58FF4F808385E031968083E4
:103EC00083E3319680838BE8319680838EE9319647
:103ED000808380E3319680838AE03196808348E056
:103EE00050E0B501C6010E94160F87E053CF86014E
:103EF0000F581F4FD8018C9187FFFECD82E0F5014E
:103F000080837601F5E7EF0EF11C84E0582ED7018F
:103F10005C924601B6E78B0E911CF401108243E0DF
:103F200050E0B501C6010E94160FF601E959FF4F96
:103F30008081882309F442C0D8018D919C9111970A
:103F4000877F8D939C9389E1F5018083D7015C92F3
:103F50008AE0F4018083D60154968C91549731966F
:103F60008083F6018589E858FF4F808356968C91AF
:103F7000569731968083F6018789E658FF4F8083F4
:103F800058968C9131968083F601818DE458FF4FCD
:103F9000808381E031968083319610823196108241
:103FA000319610824DE050E0B501C6010E94160F17
:103FB0008CE0F601E459FF4F80839ECD88E0F9CF75
:103FC000F601EF58FF4F808180FF96CD3A9710821F
:103FD000C6010E94F10F89E0DDCEF601EF58FF4FD8
:103FE0008081918190FF88CD81FF1EC081E1F50124
:103FF000808384E0F601EB58FF4F808382E03196A6
:104000008083D60152969C91529753968C9131960B
:10401000908331968F70808345E050E0B501C601F2
:104020000E94160F8AE045CEC6010E94F10F64CDB2
:10403000D601D9968C91D99781115ECDDB968C9162
:10404000DB97811159CDDE968C91DE97811154CD8D
:10405000F601E05CFF4F808181114ECDF1968081A9
:1040600091818F7E918380838AE1F50180838CE04A
:10407000F601EB58FF4F808381E0319680831896DC
:104080008D919C913196892B69F083E0808344E087
:1040900050E0B501C6010E94160F81E0F60184834D
:1040A0008BE078CE82E0F2CFF601EF58FF4F8081AF
:1040B000918184FF40C0D60114961C921497877F8B
:1040C0009183808389E1F501808384E0F601EB58D8
:1040D000FF4F80838AE03196808354968C91549769
:1040E00031968083F6018589E858FF4F8083569684
:1040F0008C91569731968083F6018789E658FF4F59
:10410000808358968C9131968083F601818DE45896
:10411000FF4F808381E03196808331961082319603
:104120001082319610824DE050E0B501C6010E9428
:10413000160F8CE02FCE82FFDFCC80E1BACD960146
:104140002F583F4F3C832B83D9014D905C9043FE09
:10415000D3CC7601BAE1EB0EF11C48E050E060E907
:1041600072E0C7010E947628892BC1F4332433946E
:10417000F60132AE14AE15AE4601F6E68F0E911C76
:10418000D4011C9246E150E069E972E0C7010E9447
:104190007628892B09F066C0F60134AEF601E559A0
:1041A000FF4F8081811116C031978081853291F453
:1041B00031978081883071F443E150E06BED72E01B
:1041C000C7010E947628892B29F481E0F601E8597D
:1041D000FF4F8083F60183AD811105C0E05CFF4F86
:1041E0008081882331F0F601E959FF4F80818111E8
:1041F000E5CEE89441F8AB81BC814D925C9289E0B8
:10420000F501808384E0F601EB58FF4F808387E05F
:1042100031968083D60154968C9154973196808341
:10422000F6018589E858FF4F808356968C91569702
:1042300031968083F6018789E658FF4F8083589630
:104240008C9131968083F601818DE458FF4F8083F5
:10425000319610824AE050E0B501C6010E94160F67
:104260008DE098CD46E150E060EB72E0C7010E941E
:104270007628892B31F4D4013C92F60134AE35AE68
:104280008DCF43E150E067EC72E0C7010E947628D1
:10429000892B09F083CFD4013C9280CFF601EF58EF
:1042A000FF4F808181FF28CCD601A859BF4F8C9148
:1042B000882321F081E0D601DE968C93D6011596F5
:1042C0001C92159716961C92169717961C9211829F
:1042D00010828FE0EECCF601E359FF4F808191818F
:1042E0000196893E23E0920718F49183808304CCE1
:1042F000118210828AE04ECDF601EF58FF4F808187
:1043000082FFFACB1182108280E4F501282F1192EE
:104310002A95E9F7D3011D928A95E9F7F60113AEC4
:1043200012AE11AEE959FF4F1082B7971082D60135
:10433000DF961C92DF97DE961C92B896108272CEA2
:10434000CF92DF92EF92CF93DF93EC01623008F4CB
:104350005EC04115510509F45AC0DA018C918130D3
:1043600009F06DC0CE0187599F4F61506D3308F041
:104370006CE3262F30E0BA016F5F7F4FA9010E94E6
:1043800066289E0129593F4FF901C680D780E084F5
:10439000A901425C5F4FFA0180819181A281C81618
:1043A000D906EA06A1F1339680959095A0958C21C7
:1043B0009D21AE2180839183A283DA01CD92DD928B
:1043C000EC92D90116969C919F7081E0973019F07C
:1043D000923008F080E02FEF290F233008F482603C
:1043E0002DEF290F233008F484609550933008F4A2
:1043F0008860DE01AD54BF4F9C91981741F09095B5
:1044000098239F702081207F922B90838C93CE01E4
:1044100089599F4FFE01EE54FF4F2081222301F165
:10442000BE0165557F4FDC01ED91FC910190F0815B
:10443000E02DDF91CF91EF90DF90CF9019948131F3
:1044400079F4643068F0CE0187599F4F63506D3323
:1044500008F06CE3262F30E0BA016D5F7F4F8ECFFE
:10446000DF91CF91EF90DF90CF9008951F920F9240
:104470000FB60F9211240BB60F922F933F934F93C9
:104480005F936F937F938F939F93AF93BF93EF93BC
:10449000FF9383E093E00E94D602FF91EF91BF91DA
:1044A000AF919F918F917F916F915F914F913F91CC
:1044B0002F910F900BBE0F900FBE0F901F9018956D
:1044C0001F920F920FB60F9211240BB60F922F93DB
:1044D0008F939F93EF93FF93E0911303F091140355
:1044E0008081E0911903F0911A0382FD1DC0908133
:1044F00080911C038F5F8F7320911D03821741F001
:10450000E0911C03F0E0ED5FFC4F958F80931C035E
:10451000FF91EF919F918F912F910F900BBE0F9074
:104520000FBE0F901F9018958081F2CF1F920F92AF
:104530000FB60F9211242F933F938F939F93AF93B6
:10454000BF938091F5029091F602A091F702B0918D
:10455000F8023091F40223E0230F2D3758F501962D
:10456000A11DB11D2093F4028093F5029093F602F1
:10457000A093F702B093F8028091F9029091FA02A9
:10458000A091FB02B091FC020196A11DB11D809388
:10459000F9029093FA02A093FB02B093FC02BF9140
:1045A000AF919F918F913F912F910F900FBE0F90E0
:1045B0001F90189526E8230F0296A11DB11DD2CF9A
:1045C000EF92FF92A701211105C00297FF90EF9093
:1045D0000C94A305FF90EF900895EF92FF92A7012E
:1045E000211104C0FF90EF900C94A305FF90EF9071
:1045F0000895EF920F93FC01EC50FF4F55E050836C
:10460000DC01AB50BF4F4C9311964AE04C9311968E
:104610001C92D9014C91DC01A850BF4F4C93D90199
:1046200011962C91DC01A750BF4F2C9311961C9230
:1046300011961C9211961C9211961C92119621E0D3
:104640002C93119622E02C93119630EA3C9311960C
:104650002C93E12C01E02EE0AF010E9479120F9122
:10466000EF900895109206031092050388EE93E0F0
:10467000A0E0B0E08093070390930803A0930903A0
:10468000B0930A0380E192E09093040380930303C4
:1046900085EC90E09093100380930F0384EC90E0FE
:1046A000909312038093110380EC90E09093140395
:1046B0008093130381EC90E090931603809315038D
:1046C00082EC90E0909318038093170386EC90E0BF
:1046D00090931A038093190310921C0310921D03E8
:1046E00010921E0310921F038AE892E090935805DF
:1046F0008093570510925F0581E0809360051092CA
:10470000610589E595E090935E0580935D051092C3
:10471000590588E080935A058CE380935B051092DD
:104720005C05E7E5F5E081E029E535E0158686875B
:10473000178634872387359695E0E23AF907B1F773
:104740001092CD0591E19093A0032AE632E03093D8
:1047500056042093550424E832E030935804209303
:10476000570410928E0410929004109293041092A9
:1047700095041092960427E535E030939804209331
:104780009704109299048093A7041092A8041092A1
:10479000A9041092AA041092AB041092B8041092CB
:1047A000B9041092BA041092AD041092AC041092A5
:1047B000AF041092AE041092B1041092B0041092A3
:1047C000B3041092B20485E594E00E94DF052091C5
:1047D00097043091980421153105A1F0F901EA5AA6
:1047E000FF4F90E080E041915191452B09F068C066
:1047F0008B96880F991F820F931F25E534E0FC01EB
:104800003183208385E594E09093A6038093A503EC
:10481000ECEAF4E090E080E021913191232B09F063
:1048200055C0880F991FFC01E455FB4F81EA93E0C6
:104830009183808386E392E09093A2038093A10307
:104840001092FA031092B7031092B6031092B903B4
:104850001092B80381E0809395048FEE92E09093DC
:10486000600480935F0480E5809301041092020449
:1048700080E78093FD031092FE0381E78093FF039E
:104880001092000481EA93E00E94870582E292E0A0
:10489000909309048093080488E094E00E944905FD
:1048A0008CE492E09093A2038093A10384E692E0CB
:1048B000909309048093080488E094E00C944905DF
:1048C00001968031910509F08ECF9CCF01968430FE
:1048D000910509F0A1CFAECFCF93DF93CDB7DEB76F
:1048E00065970FB6F894DEBF0FBECDBF789484B540
:1048F000826084BD84B5816084BD85B5826085BDDC
:1049000085B5816085BD80916E00816080936E0069
:10491000109281008091810082608093810080915B
:10492000810081608093810080918000816080930C
:1049300080008091B10084608093B1008091B000CC
:1049400081608093B000809191008260809391009B
:1049500080919100816080939100809190008160AE
:10496000809390008091A10082608093A10080914B
:10497000A10081608093A1008091A000816080935C
:10498000A00080912101826080932101809121010A
:1049900081608093210180912001816080932001BA
:1049A00080917A00846080937A0080917A0082609E
:1049B00080937A0080917A00816080937A00809160
:1049C0007A00806880937A001092C100E09113030E
:1049D000F091140382E08083E0910F03F0911003C3
:1049E0001082E0911103F091120380E18083109214
:1049F0001B03E0911703F091180386E08083E09198
:104A00001503F0911603808180618083E091150386
:104A1000F0911603808188608083E0911503F09106
:104A20001603808180688083E0911503F09116035E
:104A300080818F7D8083249A0E9410091FB7F8948B
:104A40008091FD0281115FC045E253E0FA0184913B
:104A50002BE633E0F9019491E82FF0E0EE0FFF1F11
:104A6000EA52FD4FA591B4918C91982309F03CC076
:104A7000E5E6F2E08491F9012491FA0194919923F9
:104A800009F432C0882311F181508231F8F4E82F03
:104A9000F0E08827E15BFA4D8F4F0C945928F325FD
:104AA000F7256125EB25EF256625FA250026042646
:104AB0000A260E26122618261C26662520262626BD
:104AC0002A26809180008F7780938000E92FF0E084
:104AD000EE0FFF1FE454FD4FA591B4918FB7F894EA
:104AE0009C91292B2C938FBF85E30E9443028CB5A8
:104AF00080618CBD8CB580648CBD84E30E944302D0
:104B000083E30E9443028091FD028F5F8093FD0248
:104B10001FBF209A289A809101018F7B8093010109
:104B200068E188E80E94500960E288E70E94500925
:104B300060E088E70E94500910E000E088E60E94EB
:104B400079090F5F1F4F80FF89C061EC88ED0E94DB
:104B5000500960E680ED0E94500964E088EE0E94F2
:104B6000500988EE0E94790982FFFBCF0E94290B31
:104B700060E288EC0E94500961E080E80E945009E0
:104B800087E892E00E9445034CE3D42E1E0183E1A6
:104B9000280E311C80910001182F107486FD0CC066
:104BA00088EC0E94790985FF03C00E94290B10E25E
:104BB000612F88EC0E94500980910203813009F432
:104BC00056C008F458C0823009F4B1C0833009F4EB
:104BD0005CC010E071C0809180008F7D75CF8091A6
:104BE0008000877F71CF84B58F7784BD6FCF84B508
:104BF0008F7DFBCF8091B0008F778093B00066CF20
:104C00008091B0008F7DF9CF809190008F77809355
:104C100090005CCF809190008F7DF9CF80919000C3
:104C2000877FF5CF8091A0008F778093A0004ECF33
:104C30008091A0008F7DF9CF8091A000877FF5CF74
:104C4000809120018F778093200140CF80912001B7
:104C50008F7DF9CF80912001877FF5CF0F3F10071F
:104C600009F06CCF86E792E00E944503FFCF93E105
:104C70009093A003AECF8091A003807F803109F490
:104C8000A8CFA1E1A093A003A4CF11E08091A0033D
:104C9000807F803189F40E94080468537F4F8F4FD2
:104CA0009F4F6093FE027093FF02809300039093E6
:104CB0000103B0E2B093A0033DEA632E35E0732E0A
:104CC0004301F401819191914F01009739F0DC018A
:104CD000ED91FC910680F781E02D1995EDECF5E062
:104CE000E815F90571F78091A003803409F456C0E6
:104CF00000F58032E9F1803309F44AC0813109F0CE
:104D00005DC01092CD05D3018D919D913D0100971D
:104D100039F0DC01ED91FC910480F581E02D1995CD
:104D20008614970481F782E18093A00347C010E0C6
:104D3000ADCF813509F483C0803809F493C0803544
:104D4000E9F588EC0E94790986FF38C081E58093F7
:104D5000A0030E9408046C5E7F4F8F4F9F4F6093AB
:104D6000FE027093FF02809300039093010326C01C
:104D70000E9408040091FE021091FF02209100039E
:104D800030910103601B710B820B930B97FD16C0D2
:104D900061E088EE0E94500980E4C6CF88EE0E9450
:104DA000790980FD0BC088ED0E947909682F686041
:104DB00088ED0E945009B0E5B093A0038091AE0346
:104DC0008823D1F180E190E00E94FB01882341F02B
:104DD00087EB92E00E94450381EA93E00E94301342
:104DE00080910A048557853128F480910B048557FA
:104DF0008531C0F08AEA92E00E94450360910A047E
:104E000070E090E080E04AE00E94590B8EE992E069
:104E10000E94450360910B0470E090E080E04AE05E
:104E20000E94590B8EE090E00E94FB01882321F044
:104E300089E992E00E9445030E948003ABCE0E9464
:104E400008048090FE029090FF02A0900003B090B2
:104E50000103681979098A099B0997FDAFCF80E89A
:104E60008093A0031B8AE8E0EC8BDD8A40905D050F
:104E700050905E0530925E0520925D0510936105AD
:104E80001F921F9281E090E08C0F9D1F9F938F9344
:104E900092E1892E912C22E1A22EB12CCC24C39434
:104EA000E12C06E020E840E060E087E595E00E9424
:104EB000CD0C082F50925E0540925D050F900F902B
:104EC0000F900F90811150C0A984BA848B849C8468
:104ED000CD80FE808DEA482E85E0582ED2018D913E
:104EE0009C91009709F042C0E394B2E04B0E511C34
:104EF000E0E1EE12F3CFF30180819181009709F098
:104F000079C00F5FF2E06F0E711C0031A1F7809144
:104F10005D0590915E05892B09F45AC010936105D7
:104F200020E040E060E087E595E00E94DD04E82EA7
:104F3000882309F44DC0682F87E595E00E9432056B
:104F4000009709F445C0FC0114834E2D60E087E50D
:104F500095E00E948C0D082F882309F486C06E2DE1
:104F600087E595E00E94BB04802F2FC0DC01ED9106
:104F7000FC910084F185E02D19958111B5CFF201E6
:104F800080819181DC01ED91FC910088F189E02D17
:104F90006F2D1995882309F4A7CFF20180819181A3
:104FA000DC01ED91FC910484F585E02DA401B501AF
:104FB0001995882389F0612F8E2D0E94A70B813DC2
:104FC00009F492CF882309F450C0823D09F4F6CE4B
:104FD000F0EAF093A003F2CEF20180819181DC012E
:104FE000ED91FC910684F785E02D6C2D19958111CA
:104FF000E2CF7ACFDC01ED91FC910084F185E02DC8
:10500000199581117ECFF30180819181DC01ED91B1
:10501000FC910088F189E02D6F2D1995811109C04F
:10502000612F802F0E94A70B982F977F913D51F6FB
:1050300068CFF30180819181DC01ED91FC910484C2
:10504000F585E02DA401B501199581115ACFF30121
:1050500080819181DC01ED91FC910684F785E02D42
:105060006C2D19958823E1F24CCF80E95DCEA1E249
:105070001A2EAA1BBB1BFD010DC0AA1FBB1FEE1FD2
:10508000FF1FA217B307E407F50720F0A21BB30B1D
:10509000E40BF50B661F771F881F991F1A9469F799
:1050A00060957095809590959B01AC01BD01CF01F5
:1050B0000895EE0FFF1F881F8BBF0790F691E02D1C
:1050C000199481E090E0F8940C948428FB01DC01B1
:1050D00002C001900D9241505040D8F70895DC0174
:1050E00001C06D9341505040E0F70895FB01DC0191
:1050F0004150504030F08D910190801919F40020FA
:10510000B9F7881B990B0895F894FFCF00000000B1
:10511000C90600000000EA0700000000F802620271
:105120008F026003C0029E02B202000000000B0C5E
:10513000000000000B0C0B0C0B0C0B0C0B0C0000FC
:105140000000BD141D14870530131609A205A20521
:10515000A105A10500000000BD141D148705301332
:105160001609A021A205241A1209D61999FF0000D8
:10517000201A0000000030101E0E3A065D1A92063A
:105180000D09520688060B098D06ED22FEFF000070
:10519000E022000000003205DD04BB044E696E749D
:1051A000656E646F004E696E74656E646F20525652
:1051B0004C2D434E542D30312D5452004E696E7497
:1051C000656E646F2052564C2D434E542D30312D58
:1051D0005543004E696E74656E646F2052564C2DB7
:1051E0005742432D303100576972656C65737320E7
:1051F000436F6E74726F6C6C6572003030303000CB
:020000040003F7
:10E000000D9489F10D94B2F10D94B2F10D94B2F129
:10E010000D94B2F10D94B2F10D94B2F10D94B2F1F0
:10E020000D94B2F10D94B2F10D94B2F10D94B2F1E0
:10E030000D94B2F10D94B2F10D94B2F10D94B2F1D0
:10E040000D94B2F10D94B2F10D94B2F10D94B2F1C0
:10E050000D94B2F10D94B2F10D94B2F10D94B2F1B0
:10E060000D94B2F10D94B2F10D94B2F10D94B2F1A0
:10E070000D94B2F10D94B2F10D94B2F10D94B2F190
:10E080000D94B2F10D94B2F10D94B2F10D94B2F180
:10E090000D94B2F10D94B2F10D94B2F10D94B2F170
:10E0A0000D94B2F10D94B2F10D94B2F10D94B2F160
:10E0B0000D94B2F10D94B2F10D94B2F10D94B2F150
:10E0C0000D94B2F10D94B2F10D94B2F10D94B2F140
:10E0D0000D94B2F10D94B2F10D94B2F10D94B2F130
:10E0E0000D94B2F141546D656761323536300041AF
:10E0F000726475696E6F206578706C6F72657220DE
:10E1000073746B3530305632206279204D4C530099
:10E11000426F6F746C6F616465723E004875683F52
:10E1200000436F6D70696C6564206F6E203D200048
:10E130004350552054797065202020203D20005FF9
:10E140005F4156525F415243485F5F3D2000415658
:10E1500052204C696243205665723D20004743437C
:10E160002056657273696F6E203D20004350552024
:10E1700049442020202020203D20004C6F7720663D
:10E18000757365202020203D20004869676820665F
:10E190007573652020203D200045787420667573D6
:10E1A00065202020203D20004C6F636B2066757336
:10E1B000652020203D20004D617220203720323024
:10E1C000313300312E362E3800342E332E350056A2
:10E1D00023202020414444522020206F7020636F70
:10E1E00064652020202020696E73747275637469E1
:10E1F0006F6E2061646472202020496E74657272B3
:10E20000757074006E6F20766563746F7200726A49
:10E210006D702020006A6D70200057686174207056
:10E220006F72743A00506F7274206E6F7420737541
:10E2300070706F72746564004D7573742062652030
:10E2400061206C6574746572002000577269747483
:10E25000696E672045450052656164696E672045B7
:10E26000450045452065727220636E743D00504F35
:10E27000525400303D5A65726F2061646472003FF1
:10E280003D43505520737461747300403D454550C3
:10E29000524F4D207465737400423D426C696E6B41
:10E2A000204C454400453D44756D70204545505215
:10E2B0004F4D00463D44756D7020464C415348001B
:10E2C000483D48656C70004C3D4C69737420492F83
:10E2D0004F20506F72747300513D51756974005234
:10E2E0003D44756D702052414D00563D73686F7707
:10E2F00020696E7465727275707420566563746FF0
:10E30000727300593D506F727420626C696E6B00BD
:10E310002A0011241FBECFEFD1E2DEBFCDBF01E046
:10E320000CBF12E0A0E0B2E0EEE1FDEF03E00BBFB6
:10E3300002C007900D92A030B107D9F712E0A0E01B
:10E34000B2E001C01D92AE30B107E1F70F9460F367
:10E350000D948DFE01E20EBF0FEF0DBF11241FBE05
:10E360000D9460F30D9400F020E030E040ED57E0B4
:10E3700005C0FA013197F1F72F5F3F4F2817390792
:10E38000C0F308959C01260F311DC901A0E0B0E043
:10E390002F5F3F4FABBFFC018791882361F08093D3
:10E3A000C6008091C00086FFFCCF8091C0008064D1
:10E3B0008093C000EACF08958DE08093C6008091DD
:10E3C000C00086FFFCCF8091C00080648093C000B5
:10E3D0008AE08093C6008091C00086FFFCCF8091C8
:10E3E000C00080648093C00008950F94C2F10F9420
:10E3F000DCF10895FC019081992359F09093C600B7
:10E400008091C00086FFFCCF8091C0008064809323
:10E41000C0003196992379F70895282F982F929567
:10E420009F70892F805D8A3308F0895F8093C600D2
:10E430008091C00086FFFCCF8091C00080648093F3
:10E44000C000822F8F70982F905D9A3308F0995FEB
:10E450009093C6008091C00086FFFCCF8091C000E1
:10E4600080648093C00008959C01FB01853691056E
:10E470001CF46330710594F0C90164E670E00F94F8
:10E480002EFE605D7F4F6093C6008091C00086FFC6
:10E49000FCCF8091C00080648093C0002B30310598
:10E4A00014F43297B4F0C90164E670E00F942EFEC4
:10E4B0006AE070E00F942EFE605D7F4F6093C600AF
:10E4C0008091C00086FFFCCF8091C0008064809363
:10E4D000C000C9016AE070E00F942EFEC0968093E0
:10E4E000C6008091C00086FFFCCF8091C000806490
:10E4F0008093C00008951F93182F8EE692EE60E07F
:10E500000F94C2F11093C6008091C00086FFFCCF2B
:10E510008091C00080648093C0000F94DCF11F9153
:10E5200008952F923F924F925F926F927F928F92B7
:10E530009F92AF92BF92CF92DF92EF92FF920F9392
:10E540001F93DF93CF93CDB7DEB762970FB6F894E2
:10E55000DEBF0FBECDBF382E622ECA01DB015C01CB
:10E560006D01772420E2222E2E010894411C511CBB
:10E570008BC081E0A81680E0B80681E0C80680E084
:10E58000D80628F0C601AA27BB270F940DF2BB2797
:10E59000AD2D9C2D8B2D0F940DF28A2D0F940DF225
:10E5A0002092C6008091C00086FFFCCF8091C00001
:10E5B00080648093C0009DE29093C6008091C0006B
:10E5C00086FFFCCF8091C00080648093C0002092C1
:10E5D000C6008091C00086FFFCCF8091C00080649F
:10E5E0008093C00019828601750188249924A1E0D6
:10E5F0003A1651F03A1620F0B2E03B1661F409C029
:10E600000BBFF701779007C0C7010F9477FE782EF4
:10E6100002C0F7017080872D0F940DF22092C60082
:10E620008091C00086FFFCCF8091C0008064809301
:10E63000C000872D8052F401EF70F0708F3520F408
:10E64000E40DF51D708204C0E40DF51D8EE280839B
:10E650000894E11CF11C011D111D0894811C911CE2
:10E6600090E18916910409F0C2CF80E190E0A0E02A
:10E67000B0E0A80EB91ECA1EDB1E198AC2010F9493
:10E68000FAF10F94DCF16A94662009F072CF629679
:10E690000FB6F894DEBF0FBECDBFCF91DF911F91B3
:10E6A0000F91FF90EF90DF90CF90BF90AF909F9031
:10E6B0008F907F906F905F904F903F902F90089534
:10E6C0002F923F924F925F926F927F928F929F9282
:10E6D000AF92BF92CF92DF92EF92FF920F931F9370
:10E6E000DF93CF93CDB7DEB7CD53D1400FB6F894BB
:10E6F000DEBF0FBECDBF01E20EBF0FEF0DBF94B75F
:10E70000F894A89514BE80916000886180936000A1
:10E7100010926000789493FF05C0E0910002F091A0
:10E7200001021995279A2F9A8091C00082608093E8
:10E73000C00080E18093C40088E18093C1000000A4
:10E74000EE24FF24870144E0A42EB12CCC24DD2448
:10E7500024C0C5010197F1F70894E11CF11C011DCB
:10E76000111D21E2E2162EE4F20620E0020720E06D
:10E77000120718F031E0C32ED12CC801B70127ECE5
:10E780003BE140E050E00F9441FE611571058105C9
:10E79000910519F485B1805885B98091C00087FD35
:10E7A00003C0C114D104A9F2A6014F5F5F4FC25E3E
:10E7B000DE4F59834883CE51D140C25EDE4F8881FF
:10E7C0009981CE51D140019711F00D9410FEC05D9A
:10E7D000DE4F19821882C053D14060E0C15DDE4F28
:10E7E0001882CF52D14088249924C35DDE4F19820C
:10E7F0001882CD52D140C05EDE4F188219821A8233
:10E800001B82C052D140CE5CDE4F188219821A8220
:10E810001B82C253D140EE24FF2487010BBFF701B6
:10E8200007911691C45CDE4F19830883CC53D14005
:10E830000D940BFEC25EDE4F28813981CE51D1404E
:10E840002130310509F52091C600C25EDE4F1982E4
:10E850001882CE51D14022C02F5F3F4F4F4F5F4FA4
:10E86000213082E138078AE7480780E0580780F0C6
:10E87000C45CDE4FE881F981CC53D140EF5FFF4F9C
:10E8800019F0EE27FF27099420E030E040E050E047
:10E890008091C00087FFE0CF2091C600C35DDE4FAE
:10E8A00048815981CD52D1404F5F5F4FC35DDE4FEC
:10E8B00059834883CD52D140213209F063C64A3092
:10E8C000510508F05FC60894811C911C53E0851621
